{
  "_format": "hh-sol-artifact-1",
  "contractName": "MKCBridgeBsc",
  "sourceName": "contracts/MKCBridgeBsc.sol",
  "abi": [
    {
      "inputs": [
        {
          "internalType": "address",
          "name": "_token",
          "type": "address"
        },
        {
          "internalType": "uint256",
          "name": "_fees",
          "type": "uint256"
        }
      ],
      "stateMutability": "nonpayable",
      "type": "constructor"
    },
    {
      "anonymous": false,
      "inputs": [
        {
          "indexed": true,
          "internalType": "address",
          "name": "previousOwner",
          "type": "address"
        },
        {
          "indexed": true,
          "internalType": "address",
          "name": "newOwner",
          "type": "address"
        }
      ],
      "name": "OwnershipTransferred",
      "type": "event"
    },
    {
      "anonymous": false,
      "inputs": [
        {
          "indexed": false,
          "internalType": "address",
          "name": "from",
          "type": "address"
        },
        {
          "indexed": false,
          "internalType": "address",
          "name": "to",
          "type": "address"
        },
        {
          "indexed": false,
          "internalType": "uint256",
          "name": "amount",
          "type": "uint256"
        },
        {
          "indexed": false,
          "internalType": "uint256",
          "name": "date",
          "type": "uint256"
        },
        {
          "indexed": false,
          "internalType": "uint256",
          "name": "nonce",
          "type": "uint256"
        },
        {
          "indexed": true,
          "internalType": "enum MKCBridgeBsc.Step",
          "name": "step",
          "type": "uint8"
        }
      ],
      "name": "Transfer",
      "type": "event"
    },
    {
      "inputs": [
        {
          "internalType": "address",
          "name": "to",
          "type": "address"
        },
        {
          "internalType": "uint256",
          "name": "amount",
          "type": "uint256"
        }
      ],
      "name": "burn",
      "outputs": [],
      "stateMutability": "payable",
      "type": "function"
    },
    {
      "inputs": [
        {
          "internalType": "uint256",
          "name": "newFees",
          "type": "uint256"
        }
      ],
      "name": "changeFees",
      "outputs": [],
      "stateMutability": "nonpayable",
      "type": "function"
    },
    {
      "inputs": [],
      "name": "fees",
      "outputs": [
        {
          "internalType": "uint256",
          "name": "",
          "type": "uint256"
        }
      ],
      "stateMutability": "view",
      "type": "function"
    },
    {
      "inputs": [
        {
          "internalType": "address",
          "name": "to",
          "type": "address"
        },
        {
          "internalType": "uint256",
          "name": "amount",
          "type": "uint256"
        },
        {
          "internalType": "uint256",
          "name": "otherChainNonce",
          "type": "uint256"
        }
      ],
      "name": "mint",
      "outputs": [],
      "stateMutability": "nonpayable",
      "type": "function"
    },
    {
      "inputs": [],
      "name": "nonce",
      "outputs": [
        {
          "internalType": "uint256",
          "name": "",
          "type": "uint256"
        }
      ],
      "stateMutability": "view",
      "type": "function"
    },
    {
      "inputs": [],
      "name": "owner",
      "outputs": [
        {
          "internalType": "address",
          "name": "",
          "type": "address"
        }
      ],
      "stateMutability": "view",
      "type": "function"
    },
    {
      "inputs": [
        {
          "internalType": "uint256",
          "name": "",
          "type": "uint256"
        }
      ],
      "name": "processedNonces",
      "outputs": [
        {
          "internalType": "bool",
          "name": "",
          "type": "bool"
        }
      ],
      "stateMutability": "view",
      "type": "function"
    },
    {
      "inputs": [],
      "name": "renounceOwnership",
      "outputs": [],
      "stateMutability": "nonpayable",
      "type": "function"
    },
    {
      "inputs": [],
      "name": "token",
      "outputs": [
        {
          "internalType": "contract IToken",
          "name": "",
          "type": "address"
        }
      ],
      "stateMutability": "view",
      "type": "function"
    },
    {
      "inputs": [
        {
          "internalType": "address",
          "name": "newOwner",
          "type": "address"
        }
      ],
      "name": "transferOwnership",
      "outputs": [],
      "stateMutability": "nonpayable",
      "type": "function"
    }
  ],
  "bytecode": "0x608060405234801561001057600080fd5b506040516109c93803806109c983398101604081905261002f916100bc565b61003f61003a610068565b61006c565b600180546001600160a01b0319166001600160a01b0393909316929092179091556004556100f4565b3390565b600080546001600160a01b038381166001600160a01b0319831681178455604051919092169283917f8be0079c531659141344cd1fd0a4f28419497f9722a3daafe3b4186f6b6457e09190a35050565b600080604083850312156100ce578182fd5b82516001600160a01b03811681146100e4578283fd5b6020939093015192949293505050565b6108c6806101036000396000f3fe6080604052600436106100b15760003560e01c80639af1d35a11610069578063affed0e01161004e578063affed0e01461019a578063f2fde38b146101af578063fc0c546a146101cf576100b1565b80639af1d35a146101655780639dc29fac14610187576100b1565b8063715018a61161009a578063715018a6146100f85780638da5cb5b1461010d57806391dae51914610138576100b1565b8063156e29f6146100b65780636cda375b146100d8575b600080fd5b3480156100c257600080fd5b506100d66100d1366004610694565b6101e4565b005b3480156100e457600080fd5b506100d66100f33660046106c6565b610340565b34801561010457600080fd5b506100d6610384565b34801561011957600080fd5b506101226103cf565b60405161012f91906106de565b60405180910390f35b34801561014457600080fd5b506101586101533660046106c6565b6103de565b60405161012f919061073c565b34801561017157600080fd5b5061017a6103f3565b60405161012f9190610847565b6100d661019536600461066b565b6103f9565b3480156101a657600080fd5b5061017a61053c565b3480156101bb57600080fd5b506100d66101ca36600461064a565b610542565b3480156101db57600080fd5b506101226105b3565b6101ec6105c2565b6001600160a01b03166101fd6103cf565b6001600160a01b03161461022c5760405162461bcd60e51b8152600401610223906107db565b60405180910390fd5b60008181526003602052604090205460ff161561025b5760405162461bcd60e51b8152600401610223906107a4565b60008181526003602052604090819020805460ff191660019081179091555490517f40c10f190000000000000000000000000000000000000000000000000000000081526001600160a01b03909116906340c10f19906102c19086908690600401610723565b600060405180830381600087803b1580156102db57600080fd5b505af11580156102ef573d6000803e3d6000fd5b50600192506102fc915050565b7f27757542a5e1b9e8cef80f584e094d4eb63b9802f355c61b3640b71b618d5c8e33858542866040516103339594939291906106f2565b60405180910390a2505050565b6103486105c2565b6001600160a01b03166103596103cf565b6001600160a01b03161461037f5760405162461bcd60e51b8152600401610223906107db565b600455565b61038c6105c2565b6001600160a01b031661039d6103cf565b6001600160a01b0316146103c35760405162461bcd60e51b8152600401610223906107db565b6103cd60006105c6565b565b6000546001600160a01b031690565b60036020526000908152604090205460ff1681565b60045481565b60045434101561041b5760405162461bcd60e51b815260040161022390610810565b6104236103cf565b6001600160a01b03166108fc479081150290604051600060405180830381858888f1935050505015801561045b573d6000803e3d6000fd5b506001546040517f9dc29fac0000000000000000000000000000000000000000000000000000000081526001600160a01b0390911690639dc29fac906104a79033908590600401610723565b600060405180830381600087803b1580156104c157600080fd5b505af11580156104d5573d6000803e3d6000fd5b50600092506104e2915050565b7f27757542a5e1b9e8cef80f584e094d4eb63b9802f355c61b3640b71b618d5c8e3384844260025460405161051b9594939291906106f2565b60405180910390a26002805490600061053383610850565b91905055505050565b60025481565b61054a6105c2565b6001600160a01b031661055b6103cf565b6001600160a01b0316146105815760405162461bcd60e51b8152600401610223906107db565b6001600160a01b0381166105a75760405162461bcd60e51b815260040161022390610747565b6105b0816105c6565b50565b6001546001600160a01b031681565b3390565b600080546001600160a01b038381167fffffffffffffffffffffffff0000000000000000000000000000000000000000831681178455604051919092169283917f8be0079c531659141344cd1fd0a4f28419497f9722a3daafe3b4186f6b6457e09190a35050565b80356001600160a01b038116811461064557600080fd5b919050565b60006020828403121561065b578081fd5b6106648261062e565b9392505050565b6000806040838503121561067d578081fd5b6106868361062e565b946020939093013593505050565b6000806000606084860312156106a8578081fd5b6106b18461062e565b95602085013595506040909401359392505050565b6000602082840312156106d7578081fd5b5035919050565b6001600160a01b0391909116815260200190565b6001600160a01b03958616815293909416602084015260408301919091526060820152608081019190915260a00190565b6001600160a01b03929092168252602082015260400190565b901515815260200190565b60208082526026908201527f4f776e61626c653a206e6577206f776e657220697320746865207a65726f206160408201527f6464726573730000000000000000000000000000000000000000000000000000606082015260800190565b6020808252601a908201527f7472616e7366657220616c72656164792070726f636573736564000000000000604082015260600190565b6020808252818101527f4f776e61626c653a2063616c6c6572206973206e6f7420746865206f776e6572604082015260600190565b6020808252600c908201527f4665657320746f6f206c6f770000000000000000000000000000000000000000604082015260600190565b90815260200190565b6000600019821415610889577f4e487b710000000000000000000000000000000000000000000000000000000081526011600452602481fd5b506001019056fea26469706673582212206d1b1996561ae6443ceec1b6d0338568ef81dc362af510cfe96434c6900663df64736f6c63430008000033",
  "linkReferences": {},
  "deployedLinkReferences": {}
}