{
  "_format": "hh-sol-artifact-1",
  "contractName": "MKCBridgeAvax",
  "sourceName": "contracts/MKCBridgeAvax.sol",
  "abi": [
    {
      "inputs": [
        {
          "internalType": "address",
          "name": "_token",
          "type": "address"
        },
        {
          "internalType": "uint256",
          "name": "_fees",
          "type": "uint256"
        }
      ],
      "stateMutability": "nonpayable",
      "type": "constructor"
    },
    {
      "anonymous": false,
      "inputs": [
        {
          "indexed": true,
          "internalType": "address",
          "name": "previousOwner",
          "type": "address"
        },
        {
          "indexed": true,
          "internalType": "address",
          "name": "newOwner",
          "type": "address"
        }
      ],
      "name": "OwnershipTransferred",
      "type": "event"
    },
    {
      "anonymous": false,
      "inputs": [
        {
          "indexed": false,
          "internalType": "address",
          "name": "from",
          "type": "address"
        },
        {
          "indexed": false,
          "internalType": "address",
          "name": "to",
          "type": "address"
        },
        {
          "indexed": false,
          "internalType": "uint256",
          "name": "amount",
          "type": "uint256"
        },
        {
          "indexed": false,
          "internalType": "uint256",
          "name": "date",
          "type": "uint256"
        },
        {
          "indexed": false,
          "internalType": "uint256",
          "name": "nonce",
          "type": "uint256"
        },
        {
          "indexed": true,
          "internalType": "enum MKCBridgeAvax.Step",
          "name": "step",
          "type": "uint8"
        }
      ],
      "name": "Transfer",
      "type": "event"
    },
    {
      "inputs": [],
      "name": "balance",
      "outputs": [
        {
          "internalType": "uint256",
          "name": "",
          "type": "uint256"
        }
      ],
      "stateMutability": "view",
      "type": "function"
    },
    {
      "inputs": [
        {
          "internalType": "uint256",
          "name": "amount",
          "type": "uint256"
        }
      ],
      "name": "burn",
      "outputs": [],
      "stateMutability": "payable",
      "type": "function"
    },
    {
      "inputs": [
        {
          "internalType": "uint256",
          "name": "newFees",
          "type": "uint256"
        }
      ],
      "name": "changeFees",
      "outputs": [],
      "stateMutability": "nonpayable",
      "type": "function"
    },
    {
      "inputs": [],
      "name": "fees",
      "outputs": [
        {
          "internalType": "uint256",
          "name": "",
          "type": "uint256"
        }
      ],
      "stateMutability": "view",
      "type": "function"
    },
    {
      "inputs": [
        {
          "internalType": "address",
          "name": "to",
          "type": "address"
        },
        {
          "internalType": "uint256",
          "name": "amount",
          "type": "uint256"
        },
        {
          "internalType": "uint256",
          "name": "otherChainNonce",
          "type": "uint256"
        }
      ],
      "name": "mint",
      "outputs": [],
      "stateMutability": "nonpayable",
      "type": "function"
    },
    {
      "inputs": [],
      "name": "nonce",
      "outputs": [
        {
          "internalType": "uint256",
          "name": "",
          "type": "uint256"
        }
      ],
      "stateMutability": "view",
      "type": "function"
    },
    {
      "inputs": [],
      "name": "owner",
      "outputs": [
        {
          "internalType": "address",
          "name": "",
          "type": "address"
        }
      ],
      "stateMutability": "view",
      "type": "function"
    },
    {
      "inputs": [
        {
          "internalType": "uint256",
          "name": "",
          "type": "uint256"
        }
      ],
      "name": "processedNonces",
      "outputs": [
        {
          "internalType": "bool",
          "name": "",
          "type": "bool"
        }
      ],
      "stateMutability": "view",
      "type": "function"
    },
    {
      "inputs": [],
      "name": "renounceOwnership",
      "outputs": [],
      "stateMutability": "nonpayable",
      "type": "function"
    },
    {
      "inputs": [],
      "name": "token",
      "outputs": [
        {
          "internalType": "contract IERC20",
          "name": "",
          "type": "address"
        }
      ],
      "stateMutability": "view",
      "type": "function"
    },
    {
      "inputs": [
        {
          "internalType": "address",
          "name": "newOwner",
          "type": "address"
        }
      ],
      "name": "transferOwnership",
      "outputs": [],
      "stateMutability": "nonpayable",
      "type": "function"
    }
  ],
  "bytecode": "0x608060405234801561001057600080fd5b50604051610a98380380610a9883398101604081905261002f916100bc565b61003f61003a610068565b61006c565b600180546001600160a01b0319166001600160a01b0393909316929092179091556005556100f4565b3390565b600080546001600160a01b038381166001600160a01b0319831681178455604051919092169283917f8be0079c531659141344cd1fd0a4f28419497f9722a3daafe3b4186f6b6457e09190a35050565b600080604083850312156100ce578182fd5b82516001600160a01b03811681146100e4578283fd5b6020939093015192949293505050565b610995806101036000396000f3fe6080604052600436106100bc5760003560e01c806391dae51911610074578063b69ef8a81161004e578063b69ef8a8146101ba578063f2fde38b146101cf578063fc0c546a146101ef576100bc565b806391dae519146101565780639af1d35a14610183578063affed0e0146101a5576100bc565b80636cda375b116100a55780636cda375b146100f6578063715018a6146101165780638da5cb5b1461012b576100bc565b8063156e29f6146100c157806342966c68146100e3575b600080fd5b3480156100cd57600080fd5b506100e16100dc3660046106e6565b610204565b005b6100e16100f1366004610738565b610389565b34801561010257600080fd5b506100e1610111366004610738565b6104f8565b34801561012257600080fd5b506100e161053c565b34801561013757600080fd5b50610140610587565b60405161014d9190610750565b60405180910390f35b34801561016257600080fd5b50610176610171366004610738565b610596565b60405161014d91906107d2565b34801561018f57600080fd5b506101986105ab565b60405161014d91906108dd565b3480156101b157600080fd5b506101986105b1565b3480156101c657600080fd5b506101986105b7565b3480156101db57600080fd5b506100e16101ea3660046106c5565b6105bd565b3480156101fb57600080fd5b5061014061062e565b61020c61063d565b6001600160a01b031661021d610587565b6001600160a01b03161461024c5760405162461bcd60e51b815260040161024390610871565b60405180910390fd5b60008181526003602052604090205460ff161561027b5760405162461bcd60e51b81526004016102439061083a565b6000818152600360205260409020805460ff191660011790556004546102a29083906108fe565b60049081556001546040517fa9059cbb0000000000000000000000000000000000000000000000000000000081526001600160a01b039091169163a9059cbb916102f09187918791016107b9565b602060405180830381600087803b15801561030a57600080fd5b505af115801561031e573d6000803e3d6000fd5b505050506040513d601f19601f820116820180604052508101906103429190610718565b5060017f27757542a5e1b9e8cef80f584e094d4eb63b9802f355c61b3640b71b618d5c8e338585428660405161037c959493929190610788565b60405180910390a2505050565b6005543410156103ab5760405162461bcd60e51b8152600401610243906108a6565b6103b3610587565b6001600160a01b03166108fc479081150290604051600060405180830381858888f193505050501580156103eb573d6000803e3d6000fd5b506001546040517f23b872dd0000000000000000000000000000000000000000000000000000000081526001600160a01b03909116906323b872dd9061043990339030908690600401610764565b602060405180830381600087803b15801561045357600080fd5b505af1158015610467573d6000803e3d6000fd5b505050506040513d601f19601f8201168201806040525081019061048b9190610718565b508060045461049a91906108e6565b60045560007f27757542a5e1b9e8cef80f584e094d4eb63b9802f355c61b3640b71b618d5c8e333384426002546040516104d8959493929190610788565b60405180910390a2600280549060006104f083610915565b919050555050565b61050061063d565b6001600160a01b0316610511610587565b6001600160a01b0316146105375760405162461bcd60e51b815260040161024390610871565b600555565b61054461063d565b6001600160a01b0316610555610587565b6001600160a01b03161461057b5760405162461bcd60e51b815260040161024390610871565b6105856000610641565b565b6000546001600160a01b031690565b60036020526000908152604090205460ff1681565b60055481565b60025481565b60045481565b6105c561063d565b6001600160a01b03166105d6610587565b6001600160a01b0316146105fc5760405162461bcd60e51b815260040161024390610871565b6001600160a01b0381166106225760405162461bcd60e51b8152600401610243906107dd565b61062b81610641565b50565b6001546001600160a01b031681565b3390565b600080546001600160a01b038381167fffffffffffffffffffffffff0000000000000000000000000000000000000000831681178455604051919092169283917f8be0079c531659141344cd1fd0a4f28419497f9722a3daafe3b4186f6b6457e09190a35050565b80356001600160a01b03811681146106c057600080fd5b919050565b6000602082840312156106d6578081fd5b6106df826106a9565b9392505050565b6000806000606084860312156106fa578182fd5b610703846106a9565b95602085013595506040909401359392505050565b600060208284031215610729578081fd5b815180151581146106df578182fd5b600060208284031215610749578081fd5b5035919050565b6001600160a01b0391909116815260200190565b6001600160a01b039384168152919092166020820152604081019190915260600190565b6001600160a01b03958616815293909416602084015260408301919091526060820152608081019190915260a00190565b6001600160a01b03929092168252602082015260400190565b901515815260200190565b60208082526026908201527f4f776e61626c653a206e6577206f776e657220697320746865207a65726f206160408201527f6464726573730000000000000000000000000000000000000000000000000000606082015260800190565b6020808252601a908201527f7472616e7366657220616c72656164792070726f636573736564000000000000604082015260600190565b6020808252818101527f4f776e61626c653a2063616c6c6572206973206e6f7420746865206f776e6572604082015260600190565b6020808252600c908201527f4665657320746f6f206c6f770000000000000000000000000000000000000000604082015260600190565b90815260200190565b600082198211156108f9576108f9610930565b500190565b60008282101561091057610910610930565b500390565b600060001982141561092957610929610930565b5060010190565b7f4e487b7100000000000000000000000000000000000000000000000000000000600052601160045260246000fdfea26469706673582212204ce6738c42a77ce63f01e601970d21be5fc89a2b4a49a5c78b681a05a56c541664736f6c63430008000033",
  "linkReferences": {},
  "deployedLinkReferences": {}
}